:020000040000FA
:10000000FF28083033190130A300A201360884000C
:100010003408802034088004FC2084130005FF3E4F
:10002000331DA20C3319A20D32309420A30B0828E3
:1000300022080314FA28A200083033190130A30063
:10004000A20C360884003408802034080318800489
:100050003730942034088004A30B20280314FA2896
:10006000B31CFA283628B300331CFA28360884005B
:10007000340880200130A100E0309520340880044D
:100080000130A100E0309528B4008320200821042D
:100090000319FA28F42084133408800664005028D9
:1000A0005128A00A0319A10F4E288006FA2808300B
:1000B000A60037088400350833197E20331D8020C0
:1000C0003608840084173409800526080319FA28A5
:1000D0003318B32036088400A10CA00C00083404A7
:1000E000031C340680007720A60B6A28FA283708FC
:1000F00084003508800600008006080080048328FC
:10010000FF3A80058428FF3A84178005FA28A30166
:10011000A200FF30A207031CA307031CFA28033028
:10012000A100DF3095208928A101E83EA000A109A7
:10013000FC30031C9E28A00703189B28A00764001E
:10014000A10F9B282018A428A01CA8280000A828DC
:100150000800013EA7000A30A200A301C220A70B9D
:10016000AE2824080800A201A301BA28A10CA00C03
:10017000A20DA30DFF3E0318B6282308A1002208F4
:10018000A000FA28A501A4011030A600210DA40D9D
:10019000A50D2208A4022308031C230FA50203189F
:1001A000D8282208A40723080318230FA507031043
:1001B000A00DA10DA60BC6282008FA281030A80013
:1001C000A101A001A70CA60C031CEC282208A00783
:1001D00023080318230FA107A10CA00CA50CA40C45
:1001E000A80BE2282408FA28A009A109A00A0319EB
:1001F000A10A080083130313831264000800831606
:1002000085013930860083120130A3002C3088200C
:1002100000220C217E2109290630B6004030B400AE
:1002200001303320CC301B2044301B2030200630DE
:10023000B6004030B40004303320012001390319E6
:100240004A10031D4A14302064004A1C1729063046
:10025000B6004030B40001303320CC301B20BE301B
:100260001B2030200630B6004030B400023033206E
:100270000120BA000120BB0030203E292B30CB00EA
:100280006400BB1D50292D30CB003A09BE003B094C
:10029000BF0002303E07BA003F080318013EBB0012
:1002A0003A08A6003B08A7000A30A200A301DE20FE
:1002B000BE002508BF003E08A0003F08A100103086
:1002C000A200A301C220BC002108BD003C08A00080
:1002D0003D08A1000A30A200A301C2202408B800F2
:1002E0002508B9003C08A0003D08A1000A30A20082
:1002F000A301C220BC002108BD0008004308A000E3
:10030000A1010130A920C9004308A000A1010030CB
:10031000A920C2004408A000A1010030A920C80003
:100320004208093C031CA8299721C200A8290130D2
:100330008A0042089E3E03188A0A82008034813473
:1003400082348334843485348634873488348934E1
:100350008610831686106430831294200630B6000F
:100360000830B4000630B7000430B5000130B300E7
:100370000130A000A10157204908A000A101572089
:100380000230A000A1010630840002304420063073
:10039000B6000830B4000630B7000430B5000130B4
:1003A000B3000230A000A10157204208A000A10123
:1003B00057200230A000A101063084000230442002
:1003C0000630B6000830B4000630B7000430B5007F
:1003D0000130B3000330A000A10157204808A0005D
:1003E000A10157200230A000A10106308400023094
:1003F00044206430942086148316861083120800EB
:100400008610831686106430831294200630B6005E
:100410000830B4000630B7000430B5000130B30036
:100420000C30A000A10157200130A000A1015720ED
:100430000230A000A1010630840002304420643064
:1004400094200630B6000830B4000630B7000430FF
:10045000B5000130B3000930A000A1015720FF30E2
:10046000A000A10157200230A000A10106308400A5
:1004700002304420643094200630B6000830B400C6
:100480000630B7000430B5000130B3000A30A000D8
:10049000A10157200930A000A10157200230A0007F
:1004A000A1010630840002304420643094200630DC
:1004B000B6000830B4000630B7000430B500013093
:1004C000B3000B30A000A10157200530A000A1010E
:1004D00057200230A000A1010630840002304420E1
:1004E000643094200630B6000830B4000630B700FF
:1004F0000430B5000130B3000F30A000A101572037
:10050000A001A10157200230A000A1010630840003
:10051000023044206430942086148316861083129F
:0605200008006300912AAF
:02400E007C3FF5
:00000001FF
